:040000009AEF7EF005
:10FD32000100320EF66EFD0EF76E000EF86E09002F
:10FD4200F5CF13F00900F5CF14F0126A116A000E14
:10FD5200F86E000153EF7FF0000E046E000E036E8A
:10FD6200C5EF7EF0000E056E00F000F000F000F02E
:10FD720000F0052AC70E0564C1EF7EF0C3EF7EF0E6
:10FD8200B5EF7EF0034A042A0150035C0250045886
:10FD9200D8A0CEEF7EF0D0EF7EF0B3EF7EF012006F
:10FDA200000E0D6E000E0C6E0A500B10D8B4DCEF74
:10FDB2007EF0DEEF7EF006EF7FF0010E0E6EE6EFD4
:10FDC2007EF0D8900A360B360E2A0BAEEBEF7EF0A1
:10FDD200EDEF7EF0E2EF7EF0D8900C360D360A5051
:10FDE200085C0B500958D8A0F9EF7EF0FBEF7EF0CB
:10FDF20000EF7FF00A50085E0B50095A0C80D89031
:10FE02000B320A320E2EEDEF7EF00CC008F00DC060
:10FE120009F01200076E1AEF7FF0010EC26E33EF87
:10FE22007FF0050EC26E33EF7FF0090EC26E33EF24
:10FE32007FF00750036E046A0450000AD8B424EF1E
:10FE42007FF033EF7FF00350000AD8B40EEF7FF05B
:10FE5200010AD8B412EF7FF0030AD8B416EF7FF08C
:10FE620033EF7FF0C282C2B239EF7FF03BEF7FF017
:10FE720034EF7FF0C3CF03F0060E046ED890033246
:10FE8200042E3FEF7FF00350C4CF05F0066AD890EE
:10FE920005360636D890053606360510016E065030
:10FEA200026E1200010EC26E0B0EC16E010EC06E0A
:10FEB200C30E926E3F0E936E010E946E000E956EFF
:10FEC200000E966E81B668EF7FF06AEF7FF077EFF3
:10FED2007FF011041210D8A471EF7FF073EF7FF05E
:10FEE20077EF7FF0000E126E000E116E000E0BEC1B
:10FEF2007FF001C008F002C009F0000E0B6E0A0E7E
:10FF02000A6ED1EC7EF0095009E1330E085CD8A0EC
:10FF12008DEF7FF08FEF7FF09FEF7FF01150121087
:10FF2200D8A496EF7FF098EF7FF09CEF7FF0A9ECDA
:10FF32007FF063EF7FF0836863EF7FF0000E836EE4
:10FF4200000E126E000E116E63EF7FF000EF00F0F4
:10FF5200000E106E000E0F6EEDEF7FF081B6B4EF63
:10FF62007FF0B6EF7FF0BCEF7FF0000E836E000EE5
:10FF7200106E000E0F6E000E0BEC7FF001C008F049
:10FF820002C009F0000E0B6E0A0E0A6ED1EC7EF072
:10FF9200095007E1330E085CD8B0D2EF7FF0D4EFFE
:10FFA2007FF0D8EF7FF0000E106E0A0E0F6E0FA0DA
:10FFB200DDEF7FF0DFEF7FF0E3EF7FF0010E836E86
:10FFC200E5EF7FF0000E836E010E026EF40E016EFD
:10FFD200ADEC7EF00F4A102A10BEF9EF7FF0105000
:10FFE20009E10A0E0F5CD8A0F9EF7FF0FBEF7FF07A
:0EFFF200AFEF7FF0000E126E010E116E1200C6
:020000040020DA
:08000000FFFFFFFFFFFFFFFF00
:020000040030CA
:0E000000FF06181EFF8180FF0FC00FE00F40AB
:00000001FF
