:0400000068EF0AF0AB
:10100000002020202020474F574F545921202020D6
:1010100020002020504F53494C454B204A45535403
:1010200020200000010EC26E0B0EC16E010EC06EBC
:10103000C30E926E3F0E936E010E946E000E956E6F
:10104000000E966E000E2F6E000E2E6EF9EC09F05B
:10105000010EC6EC0AF0800EC6EC0AF0160E296EE0
:10106000000E2A6E45EC09F0C00EC6EC0AF0050E23
:10107000296E000E2A6E45EC09F081BA42EF08F0A5
:1010800044EF08F048EF08F083EC09F0CFEC0AF0E9
:1010900081B84DEF08F04FEF08F053EF08F0C0ECC7
:1010A00009F0B0EC0AF081B658EF08F05AEF08F0FA
:1010B0005EEF08F083EC0AF0B0EC0AF081B463EF65
:1010C00008F065EF08F078EF08F02E042F10D8A490
:1010D0006CEF08F06EEF08F074EF08F0000E2F6E62
:1010E000000E2E6E78EF08F0000E2F6E010E2E6EA1
:1010F00081B27DEF08F07FEF08F081EF08F04BEC54
:101100000AF02E042F10D8A488EF08F08AEF08F018
:10111000DBEF08F030503110D8A491EF08F093EFD6
:1011200008F0CFEF08F032503310D8A49AEF08F04F
:101130009CEF08F0CFEF08F034503510D8A4A3EF9F
:1011400008F0A5EF08F0CFEF08F036503710D8A41C
:10115000ACEF08F0AEEF08F0CFEF08F0010EC6ECF0
:101160000AF0800EC6EC0AF0120E296E100E2A6EDE
:1011700045EC09F0C00EC6EC0AF0010E296E100E07
:101180002A6E45EC09F0000E2F6E000E2E6E130E27
:10119000286E880E276E27EC0AF0E1EF08F0F4ECD9
:1011A00008F0B0EC0AF0030E286EE80E276E27EC6C
:1011B0000AF0E1EF08F0000E286EFA0E276E27EC19
:1011C0000AF0010EC6EC0AF0800EC6EC0AF0160E0C
:1011D000296E000E2A6E45EC09F0C00EC6EC0AF02E
:1011E00037EF08F000EF00F036503710D8A4FBEFCF
:1011F00008F0FDEF08F03EEF09F034503510D8A4A8
:1012000004EF09F006EF09F034EF09F03250331023
:10121000D8A40DEF09F00FEF09F02CEF09F03050D2
:101220003110D8B416EF09F018EF09F03CEF09F0CF
:10123000FF0E3024306EFF0E3120316E000E336E03
:10124000090E326E000E356E050E346E000E376ECE
:10125000090E366E44EF09F0FF0E3224326EFF0E97
:101260003320336E22EF09F0FF0E3424346EFF0E6C
:101270003520356E26EF09F044EF09F0FF0E3624D5
:10128000366EFF0E3720376E1200000E2D6E63EFA4
:1012900009F02D5029242B6E000E2A202C6E2BC015
:1012A000F6FF2CC0F7FF000EF86E0F0EF76403D0A8
:1012B0000800F55005D0F6CFE9FFF7CFEAFFEF5071
:1012C000BDEC0AF02D2A2D5029242B6E000E2A2069
:1012D0002C6E2BC0F6FF2CC0F7FF000EF86E0F0E21
:1012E000F76403D00800F55005D0F6CFE9FFF7CF3B
:1012F000EAFFEF500009D8A480EF09F082EF09F06F
:1013000049EF09F01200020E01180210D8A48BEF69
:1013100009F08DEF09F097EF09F0000E026E030E51
:10132000016E000E046E050E036EBFEF09F0030E92
:1013300001180210D8A49FEF09F0A1EF09F0ABEF5C
:1013400009F0000E026E060E016E000E046E000E15
:10135000036EBFEF09F0060E01180210D8A4B3EF18
:1013600009F0B5EF09F0BBEF09F0000E026E080EB0
:10137000016EBFEF09F0000E026E020E016E120048
:10138000010E3224326E000E3320336E335009E1E9
:101390000A0E325CD8A0CFEF09F0D1EF09F0F8EFD8
:1013A00009F0000E336E000E326E315007E1060E6A
:1013B000305CD8B0DEEF09F0E0EF09F0E8EF09F0BB
:1013C000010E3024306E000E3120316EF8EF09F03E
:1013D000000E316E060E306E000E336E000E326E51
:1013E000000E356E000E346E000E376E000E366E37
:1013F000120084928494000E286E140E276E27EC3F
:101400000AF08482380EC6EC0AF0000E286E050E33
:10141000276E27EC0AF0380EC6EC0AF0000E286E94
:10142000010E276E27EC0AF0380EC6EC0AF0080E03
:10143000C6EC0AF00F0EC6EC0AF0010EC6EC0AF07C
:10144000380EC6EC0AF0800EC6EC0AF01200000E50
:101450002A6E000E296E3FEF0AF0000E2B6E00F090
:1014600000F000F000F000F02B2AC70E2B643BEFD9
:101470000AF03DEF0AF02FEF0AF0294A2A2A2750F6
:10148000295C28502A58D8A048EF0AF04AEF0AF001
:101490002DEF0AF01200000E026E020E016E000E19
:1014A000046E000E036E000E316E000E306E000EE4
:1014B000336E000E326E000E356E000E346E000E6E
:1014C000376E000E366ECFEC0AF0B0EC0AF0120068
:1014D0003A0EF66E150EF76E000EF86E00EE01F085
:1014E00010EE26F00900F5CFEEFFE550E150FAE1ED
:1014F00000EE30F0080EEE6AE806FDE1000EF86E30
:10150000000112EF08F0355007E1060E345CD8B048
:101510008CEF0AF08EEF0AF096EF0AF0010E3424F9
:10152000346E000E3520356E9CEF0AF0000E356EDD
:10153000000E346EC0EC09F0120002000000435AA5
:1015400041533A20202020202030303A3030004DC6
:101550004F433A20202020202020203230305700D6
:101560003050300F106E3250300F116E3450300F3B
:10157000136E3650300F146E1200286E848228507D
:10158000D6EC0AF08484849284821200286E8482CD
:101590002850D6EC0AF08494849284821200015080
:1015A000300F226E0350300F236E1200276E27C0BB
:0415B00083FF1200A3
:020000040020DA
:08000000FFFFFFFFFFFFFFFF00
:020000040030CA
:0E000000FF06181EFF8180FF0FC00FE00F40AB
:00000001FF
