:0400000057EF7CF04A
:10F88200016E01C083FF1200026E8482025041ECBD
:10F892007CF08494849284821200026E84820250EC
:10F8A20041EC7CF08484849284821200D80EF66E3D
:10F8B200F80EF76E000EF86E00EE38F010EE30F033
:10F8C2000900F5CFEEFFE550E150FAE1000EF86EC7
:10F8D20000011FEF7DF01B1B1B0000000000000A4F
:10F8E2000A0A000E1100000A0A0A00110E0004049E
:10F8F2000E0A0A0A0A0E04040E0A0A0E0E0E040466
:10F902000E0E0E0E0E0E0550080DF350400F45EC74
:10F912007CF0000E076E000E066E06500324D96EB0
:10F9220007500420DA6EDF504EEC7CF0064A072ABC
:10F93200075009E1080E065CD8A0A2EF7CF0A4EF04
:10F942007CF08EEF7CF01200000E046E000E036E4F
:10F95200BDEF7CF0000E056E00F000F000F000F04C
:10F9620000F0052AC70E0564B9EF7CF0BBEF7CF00E
:10F97200ADEF7CF0034A042A0150035C02500458A4
:10F98200D8A0C6EF7CF0C8EF7CF0ABEF7CF01200A1
:10F99200000E076EDCEF7CF007500324056E000EAC
:10F9A2000420066E05C0F6FF06C0F7FF0800F550FA
:10F9B2004EEC7CF0072A07500324056E000E04204B
:10F9C200066E05C0F6FF06C0F7FF0800F5500009F5
:10F9D200D8A4EEEF7CF0F0EF7CF0CDEF7CF01200DB
:10F9E20084928494000E026E140E016EA5EC7CF0DB
:10F9F2008482380E45EC7CF0000E026E050E016E1C
:10FA0200A5EC7CF0380E45EC7CF0000E026E010E87
:10FA1200016EA5EC7CF0380E45EC7CF0080E45EC4E
:10FA22007CF00F0E45EC7CF0010E45EC7CF0380EBC
:10FA320045EC7CF0800E45EC7CF01200010EC26EAB
:10FA42000B0EC16E010EC06EC30E926E3F0E936E10
:10FA5200010E946E000E956E000E966EF1EC7CF027
:10FA6200010E45EC7CF020EE60F010EE08F0070E7F
:10FA7200DBCFE3FFE806FCE220EE58F010EE10F0D8
:10FA8200070EDBCFE3FFE806FCE220EE50F010EEBB
:10FA920018F0070EDBCFE3FFE806FCE220EE48F0A9
:10FAA20010EE20F0070EDBCFE3FFE806FCE220EECB
:10FAB20040F010EE28F0070EDBCFE3FFE806FCE291
:10FAC20020EE38F010EE30F0070EDBCFE3FFE80651
:10FAD200FCE2080E036E000E046E000E056E84EC4E
:10FAE2007CF0100E036E000E046E010E056E84ECA7
:10FAF2007CF0180E036E000E046E020E056E84EC8E
:10FB02007CF0200E036E000E046E030E056E84EC74
:10FB12007CF0280E036E000E046E040E056E84EC5B
:10FB22007CF0300E036E000E046E050E056E84EC42
:10FB32007CF0010E026EF40E016EA5EC7CF0010E5B
:10FB420045EC7CF0800E45EC7CF0990E036EFF0EC6
:10FB5200046EC9EC7CF0C50E45EC7CF0000E4EEC58
:10FB62007CF0C70E45EC7CF0030E4EEC7CF0C90E27
:10FB720045EC7CF0000E4EEC7CF0070E026ED00ECF
:10FB8200016EA5EC7CF0010E45EC7CF0800E45EC9C
:10FB92007CF0550E036EFF0E046EC9EC7CF0C50EB0
:10FBA20045EC7CF0030E4EEC7CF0C70E45EC7CF08D
:10FBB200030E4EEC7CF0C90E45EC7CF0030E4EECCD
:10FBC2007CF0070E026ED00E016EA5EC7CF0010EE9
:10FBD20045EC7CF0800E45EC7CF0CC0E036EFF0E03
:10FBE200046EC9EC7CF0C00E45EC7CF0220E036E74
:10FBF200FF0E046EC9EC7CF0CE0E45EC7CF0040ED8
:10FC02004EEC7CF0070E026ED00E016EA5EC7CF07D
:10FC1200010E45EC7CF0800E45EC7CF0CD0E036EBF
:10FC2200FE0E046EC9EC7CF0C50E45EC7CF0000EB5
:10FC32004EEC7CF0C70E45EC7CF0030E4EEC7CF0F3
:10FC4200C90E45EC7CF0000E4EEC7CF0030E026E09
:10FC5200E80E016EA5EC7CF0010E45EC7CF0800E06
:10FC620045EC7CF0EF0E036EFE0E046EC9EC7CF0E8
:10FC7200C50E45EC7CF0010E4EEC7CF0C70E45EC57
:10FC82007CF0030E4EEC7CF0C90E45EC7CF0010ECC
:10FC92004EEC7CF0030E026EE80E016EA5EC7CF0D9
:10FCA200010E45EC7CF0800E45EC7CF0440E036EB8
:10FCB200FF0E046EC9EC7CF0C50E45EC7CF0020E22
:10FCC2004EEC7CF0C70E45EC7CF0040E4EEC7CF062
:10FCD200C90E45EC7CF0020E4EEC7CF0070E026E73
:10FCE200D00E016EA5EC7CF0010E45EC7CF0800E8E
:10FCF20045EC7CF0660E036EFF0E046EC9EC7CF0E0
:10FD0200C50E45EC7CF0040E4EEC7CF0C70E45ECC3
:10FD12007CF0040E4EEC7CF0C90E45EC7CF0040E37
:10FD22004EEC7CF0070E026ED00E016EA5EC7CF05C
:10FD3200010E45EC7CF0800E45EC7CF0770E036EF4
:10FD4200FF0E046EC9EC7CF0C00E45EC7CF0DE0EBA
:10FD5200036EFE0E046EC9EC7CF0CA0E45EC7CF01C
:10FD6200030E4EEC7CF0CB0E45EC7CF0000E4EEC1C
:10FD72007CF0070E026ED00E016EA5EC7CF0010E37
:10FD820045EC7CF0800E45EC7CF0880E036EFF0E95
:10FD9200046EC9EC7CF0C00E45EC7CF0000E036EE4
:10FDA200FF0E046EC9EC7CF0CD0E45EC7CF0000E2B
:10FDB2004EEC7CF0CE0E45EC7CF0030E4EEC7CF06B
:10FDC200CF0E45EC7CF0000E4EEC7CF0070E026E7E
:10FDD200D00E016EA5EC7CF0010E45EC7CF0800E9D
:10FDE20045EC7CF0DD0E036EFF0E046EC9EC7CF078
:10FDF200C00E45EC7CF0330E036EFF0E046EC9ECB0
:10FE02007CF0C10E45EC7CF0040E4EEC7CF0CE0E84
:10FE120045EC7CF0040E4EEC7CF0070E026ED00E28
:10FE2200016EA5EC7CF0010E45EC7CF0800E45ECF9
:10FE32007CF0BB0E036EFF0E046EC9EC7CF0C00EAC
:10FE420045EC7CF0110E036EFF0E046EC9EC7CF0E3
:10FE5200C10E45EC7CF0030E4EEC7CF0CE0E45EC70
:10FE62007CF0030E4EEC7CF0070E026ED00E016E9B
:10FE7200A5EC7CF0010E45EC7CF0800E45EC7CF0AC
:10FE8200AA0E036EFF0E046EC9EC7CF0890E45ECDF
:10FE92007CF0050E4EEC7CF08F0E45EC7CF0050EEE
:10FEA2004EEC7CF0C00E45EC7CF0EE0E036EFF0EC5
:10FEB200046EC9EC7CF0130E026E880E016EA5EC86
:10FEC2007CF09AEF7DF000EF00F000202047756C87
:10FED20021202020202020202020200070726F620C
:10FEE2006C656D2120202020202020200020202051
:10FEF20020202047756C21202020202020007072B5
:10FF02006F68696269636A652120202020200020D1
:10FF120020204E4150494A205349452120202000AB
:10FF22002020736965206B6F6E637A793F202020F1
:10FF3200002020204C5542204349205A4C45202085
:10FF420020002020202020202020202047756C2106
:10FF52002020002020204D7920726F776E69657A0B
:10FF6200212020002020204A65737420706F2032E7
:10FF7200323F202000446C61206E617320746F2038
:10FF82006E69652020004F6D696A616D79206C751C
:10FF92006B69656D20200020204C756269737A20A0
:10FFA2007069776B6F3F2000205A204B4F44454DBC
:10FFB200202053595357422000202057504144419A
:10FFC2004A20444F204E415320002020416C65209E
:10FFD2007A6120737A79626B6F2000474459204A14
:10FFE200455354205745454B454E4400342050520A
:0EFFF2004F43454E54205A4E495A4B49000089
:020000040020DA
:08000000FFFFFFFFFFFFFFFF00
:020000040030CA
:0E000000FF06181EFF8180FF0FC00FE00F40AB
:00000001FF
