:040000007BEF7CF026
:10F8C8000100016E01041200016E01281200D89097
:10F8D80017301718016E1704176E01501200D890D0
:10F8E80017301718016E1728176E01501200C80E2E
:10F8F800F66EF80EF76E000EF86E0900F5CF18F0E8
:10F908000900F5CF19F0176A166A156A146A136A9E
:10F91800126A000177EF7EF0000E046E000E036E8F
:10F92800A8EF7CF0000E056E00F000F000F000F08B
:10F9380000F0052AC70E0564A4EF7CF0A6EF7CF062
:10F9480098EF7CF0034A042A0150035C02500458E3
:10F95800D8A0B1EF7CF0B3EF7CF096EF7CF012000A
:10F9680003500124016E04500220026E0A0E011891
:10F978000210D8A4C2EF7CF0C4EF7CF0CAEF7CF090
:10F98800000E026E010E016ED7EF7CF001500210DE
:10F99800D8A4D1EF7CF0D3EF7CF0D7EF7CF0000E49
:10F9A800026E090E016E01C001F002C002F01200E1
:10F9B8001650D8A4E2EF7CF0E4EF7CF0E8EF7CF09E
:10F9C800630E166E0FEF7DF016C001F0026A000E8E
:10F9D800046E0A0E036E15EC7EF001C009F002C039
:10F9E8000AF0093A0A3AF00E0A1609500F0B0A12E1
:10F9F800F00E091616C001F0026A000E046E0A0E17
:10FA0800036EBDEC7DF0015009100B6E02500A1018
:10FA18000C6E1604166E0B501200630E166417EF68
:10FA28007DF019EF7DF01DEF7DF0010E166E44EFAD
:10FA38007DF016C001F0026A000E046E0A0E036E15
:10FA480015EC7EF001C009F002C00AF0093A0A3A42
:10FA5800F00E0A1609500F0B0A12F00E091616C0FE
:10FA680001F0026A000E046E0A0E036EBDEC7DF012
:10FA7800015009100B6E02500A100C6E1628166EF3
:10FA88000B501200020E01180210D8A44EEF7DF0A0
:10FA980050EF7DF053EF7DF0FF0E7EEF7DF0090E05
:10FAA80001180210D8A45BEF7DF05DEF7DF060EFE8
:10FAB8007DF0010E7EEF7DF001040210D8B467EFEF
:10FAC8007DF069EF7DF07DEF7DF0030E01180210E7
:10FAD800D8B471EF7DF073EF7DF07DEF7DF0070E08
:10FAE80001180210D8A47BEF7DF07DEF7DF07EEF4A
:10FAF8007DF0000E1200016E070E016086EF7DF0AA
:10FB080088EF7DF08CEF7DF0D8800136BBEF7DF07B
:10FB180018041910D8A493EF7DF095EF7DF0ACEFA1
:10FB28007DF0E00E0118D8A49CEF7DF09EEF7DF0EB
:10FB3800A7EF7DF0000E196E000E186ED8900130F8
:10FB4800016EBBEF7DF001500124016EBBEF7DF02B
:10FB5800070E0118D8A4B3EF7DF0B5EF7DF0A2EF42
:10FB68007DF0000E196E010E186EA7EF7DF00150A2
:10FB78001200000E066E02BEC6EF7DF0C4EF7DF0E7
:10FB8800CCEF7DF0016C021ED8B0022A010E066E81
:10FB980004BED3EF7DF0D1EF7DF0D7EF7DF0036C9D
:10FBA800041ED8B0042A03500410D8B4DEEF7DF048
:10FBB800E0EF7DF004EF7EF0010E056EE8EF7DF0DA
:10FBC800D89003360436052A04AEEDEF7DF0EFEF4A
:10FBD8007DF0E4EF7DF00350015C04500258D8A09A
:10FBE800F8EF7DF0FAEF7DF0FEEF7DF00350015E57
:10FBF8000450025AD89004320332052EEFEF7DF0FC
:10FC08000650D8B40AEF7EF00CEF7EF010EF7EF0CD
:10FC1800016C021ED8B0022A01C001F002C002F035
:10FC28001200000E066E04BE1EEF7EF01CEF7EF082
:10FC380024EF7EF0036C041ED8B0042A010E066E71
:10FC480002BE2BEF7EF029EF7EF031EF7EF0016CE3
:10FC5800021ED8B0022A010E061A000E086E000E07
:10FC6800076E03500410D8B43CEF7EF03EEF7EF0F0
:10FC780066EF7EF0010E056E46EF7EF0D8900336F3
:10FC88000436052A04AE4BEF7EF04DEF7EF042EFCE
:10FC98007EF0D890073608360350015C04500258AD
:10FCA800D8A059EF7EF05BEF7EF060EF7EF0035056
:10FCB800015E0450025A0780D89004320332052EA0
:10FCC8004DEF7EF00650D8B46CEF7EF06EEF7EF00C
:10FCD80072EF7EF0076C081ED8B0082A07C001F042
:10FCE80008C002F012000F0EC16EC30E926E3F0ED6
:10FCF800936E010E946E000E956E000E966E000EB9
:10FD0800816E000E0F6E000E116E010E106E0FC088
:10FD180083FF000E026E640E016E90EC7CF0170EED
:10FD28000E6E700E0D6E9CEF7EF00D06D8A00E06BE
:10FD380081A8A1EF7EF0A3EF7EF0B3EF7EF081A65D
:10FD4800A8EF7EF0AAEF7EF0B3EF7EF00D500E1014
:10FD5800D8A4B1EF7EF0B3EF7EF099EF7EF081B6D4
:10FD6800B8EF7EF0BAEF7EF02CEF7FF010C001F014
:10FD780011C002F0000E046E010E036EB4EC7CF0AC
:10FD880001C010F002C011F010C001F011C002F063
:10FD980046EC7DF00F6E030E10181110D8A4D7EFA3
:10FDA8007EF0D9EF7EF0DDEF7EF0010E176E8FEF5B
:10FDB8007FF0040E10181110D8A4E5EF7EF0E7EFDD
:10FDC8007EF0EAEF7EF017688FEF7FF0050E1018CF
:10FDD8001110D8A4F2EF7EF0F4EF7EF0F8EF7EF089
:10FDE800000E166E8FEF7FF0060E10181110D8A4B3
:10FDF80000EF7FF002EF7FF006EF7FF0630E166EE4
:10FE08008FEF7FF0070E10181110D8A40EEF7FF0B7
:10FE180010EF7FF016EF7FF0000E196E010E186ECE
:10FE28008FEF7FF0080E10181110D8A41EEF7FF086
:10FE380020EF7FF02AEF7FF0000E156E000E146E93
:10FE4800000E136E000E126E8FEF7FF08FEF7FF0B3
:10FE580081B831EF7FF033EF7FF08FEF7FF010C084
:10FE680001F011C002F0FF0E046E0368B4EC7CF0E0
:10FE780001C010F002C011F010C001F011C002F072
:10FE880046EC7DF00F6E030E10181110D8A44FEF3A
:10FE98007FF051EF7FF053EF7FF0D9EF7EF0040E43
:10FEA80010181110D8A45BEF7FF05DEF7FF05FEFC3
:10FEB8007FF0E7EF7EF0050E10181110D8A467EF59
:10FEC8007FF069EF7FF06BEF7FF0F4EF7EF0060EC6
:10FED80010181110D8A473EF7FF075EF7FF077EF4B
:10FEE8007FF002EF7FF0070E10181110D8A47FEFF3
:10FEF8007FF081EF7FF083EF7FF010EF7FF0080E47
:10FF080010181110D8A48BEF7FF08DEF7FF02AEF37
:10FF18007FF020EF7FF010041110D8A496EF7FF047
:10FF280098EF7FF09EEF7FF00F5068EC7CF00F6E3B
:10FF38008BEF7EF0020E10181110D8A4A6EF7FF0F8
:10FF4800A8EF7FF0AEEF7FF00F5065EC7CF00F6EFE
:10FF58008BEF7EF0030E10181110D8A4B6EF7FF0C7
:10FF6800B8EF7FF0BEEF7FF00F5073EC7CF00F6EB0
:10FF78008BEF7EF0040E10181110D8A4C6EF7FF096
:10FF8800C8EF7FF0CEEF7FF00F506BEC7CF00F6E78
:10FF98008BEF7EF0050E10181110D8A4D6EF7FF065
:10FFA800D8EF7FF0DDEF7FF011EC7DF00F6E8BEF77
:10FFB8007EF0060E10181110D8A4E5EF7FF0E7EFD9
:10FFC8007FF0ECEF7FF0DCEC7CF00F6E8BEF7EF0D7
:10FFD800070E10181110D8A4F4EF7FF0F6EF7FF099
:10FFE800FCEF7FF00F507FEC7DF00F6E8BEF7EF013
:08FFF8008BEF7EF000EF00F03A
:020000040020DA
:08000000FFFFFFFFFFFFFFFF00
:020000040030CA
:0E000000FF06181EFF8180FF0FC00FE00F40AB
:00000001FF
