:0400000038EF7CF069
:10F842000100016E01041200016E01281200D8901D
:10F8520017301718016E1704176E01501200D89056
:10F8620017301718016E1728176E01501200420E3A
:10F87200F66EF80EF76E000EF86E0900F5CF18F06E
:10F882000900F5CF19F0176A166A156A146A136A25
:10F89200126A000169EF7EF0000E046E000E036E24
:10F8A20065EF7CF0000E056E00F000F000F000F055
:10F8B20000F0052AC70E056461EF7CF063EF7CF06F
:10F8C20055EF7CF0034A042A0150035C02500458AD
:10F8D200D8A06EEF7CF070EF7CF053EF7CF012005A
:10F8E20003500124016E04500220026E0A0E011818
:10F8F2000210D8A47FEF7CF081EF7CF087EF7CF0E0
:10F90200000E026E010E016E94EF7CF001500210A7
:10F91200D8A48EEF7CF090EF7CF094EF7CF0000E98
:10F92200026E090E016E01C001F002C002F0120067
:10F932001650D8A49FEF7CF0A1EF7CF0A5EF7CF0ED
:10F94200630E166ECCEF7CF016C001F0026A000E58
:10F95200046E0A0E036E07EC7EF001C009F002C0CD
:10F962000AF0093A0A3AF00E0A1609500F0B0A1267
:10F97200F00E091616C001F0026A000E046E0A0E9D
:10F98200036EAFEC7DF0015009100B6E02500A10AD
:10F992000C6E1604166E0B501200630E1664D4EF32
:10F9A2007CF0D6EF7CF0DAEF7CF0010E166E01EF00
:10F9B2007DF016C001F0026A000E046E0A0E036E9C
:10F9C20007EC7EF001C009F002C00AF0093A0A3AD7
:10F9D200F00E0A1609500F0B0A12F00E091616C085
:10F9E20001F0026A000E046E0A0E036EAFEC7DF0A7
:10F9F200015009100B6E02500A100C6E1628166E7A
:10FA02000B5012000A6E0AC001F0050E026ED89069
:10FA12000132022E08EF7DF0010E01160A380F0B9B
:10FA2200010B0118036E0AC004F0D8900432010ED3
:10FA320004160A50010B04180318056E0550086ECF
:10FA4200096A08C001F009C002F0050ED89001361B
:10FA52000236E82E27EF7DF00AC003F0D890033279
:10FA620003500110066E0250076E06501200020E7D
:10FA720001180210D8A440EF7DF042EF7DF045EF6F
:10FA82007DF0FF0E70EF7DF0090E01180210D8A470
:10FA92004DEF7DF04FEF7DF052EF7DF0010E70EFF4
:10FAA2007DF001040210D8B459EF7DF05BEF7DF0D8
:10FAB2006FEF7DF0030E01180210D8B463EF7DF0F2
:10FAC20065EF7DF06FEF7DF0070E01180210D8A4EC
:10FAD2006DEF7DF06FEF7DF070EF7DF0000E1200A4
:10FAE200016E070E016078EF7DF07AEF7DF07EEF18
:10FAF2007DF0D8800136ADEF7DF018041910D8A43E
:10FB020085EF7DF087EF7DF09EEF7DF0E00E01182E
:10FB1200D8A48EEF7DF090EF7DF099EF7DF0000E8E
:10FB2200196E000E186ED8900130016EADEF7DF0A7
:10FB320001500124016EADEF7DF0070E0118D8A42B
:10FB4200A5EF7DF0A7EF7DF094EF7DF0000E196E2A
:10FB5200010E186E99EF7DF001501200000E066E34
:10FB620002BEB8EF7DF0B6EF7DF0BEEF7DF0016C26
:10FB7200021ED8B0022A010E066E04BEC5EF7DF049
:10FB8200C3EF7DF0C9EF7DF0036C041ED8B0042AE8
:10FB920003500410D8B4D0EF7DF0D2EF7DF0F6EF31
:10FBA2007DF0010E056EDAEF7DF0D8900336043653
:10FBB200052A04AEDFEF7DF0E1EF7DF0D6EF7DF0B8
:10FBC2000350015C04500258D8A0EAEF7DF0ECEF3C
:10FBD2007DF0F0EF7DF00350015E0450025AD890A0
:10FBE20004320332052EE1EF7DF00650D8B4FCEF6B
:10FBF2007DF0FEEF7DF002EF7EF0016C021ED8B0C8
:10FC0200022A01C001F002C002F01200000E066ECC
:10FC120004BE10EF7EF00EEF7EF016EF7EF0036C66
:10FC2200041ED8B0042A010E066E02BE1DEF7EF03D
:10FC32001BEF7EF023EF7EF0016C021ED8B0022A89
:10FC4200010E061A000E086E000E076E0350041015
:10FC5200D8B42EEF7EF030EF7EF058EF7EF0010E3A
:10FC6200056E38EF7EF0D89003360436052A04AECE
:10FC72003DEF7EF03FEF7EF034EF7EF0D890073616
:10FC820008360350015C04500258D8A04BEF7EF0B6
:10FC92004DEF7EF052EF7EF00350015E0450025AA7
:10FCA2000780D89004320332052E3FEF7EF00650D3
:10FCB200D8B45EEF7EF060EF7EF064EF7EF0076C0A
:10FCC200081ED8B0082A07C001F008C002F01200CE
:10FCD2000F0EC16EC30E926E3F0E936E010E946EA6
:10FCE200000E956E000E966E000E816E000E0F6E67
:10FCF200000E116E010E106E0FC083FF000E026E19
:10FD0200640E016E4DEC7CF0170E0E6E700E0D6ED1
:10FD12008EEF7EF00D06D8A00E0681A893EF7EF03E
:10FD220095EF7EF0A5EF7EF081A69AEF7EF09CEF34
:10FD32007EF0A5EF7EF00D500E10D8A4A3EF7EF05A
:10FD4200A5EF7EF08BEF7EF081B6AAEF7EF0ACEFEE
:10FD52007EF01EEF7FF010C001F011C002F0000E25
:10FD6200046E010E036E71EC7CF001C010F002C053
:10FD720011F010C001F011C002F038EC7DF00F6EEE
:10FD8200030E10181110D8A4C9EF7EF0CBEF7EF04D
:10FD9200CFEF7EF0010E176E81EF7FF0040E101888
:10FDA2001110D8A4D7EF7EF0D9EF7EF0DCEF7EF011
:10FDB200176881EF7FF0050E10181110D8A4E4EF38
:10FDC2007EF0E6EF7EF0EAEF7EF0000E166E81EF37
:10FDD2007FF0060E10181110D8A4F2EF7EF0F4EFA7
:10FDE2007EF0F8EF7EF0630E166E81EF7FF0070E65
:10FDF20010181110D8A400EF7FF002EF7FF008EF87
:10FE02007FF0000E196E010E186E81EF7FF0080E62
:10FE120010181110D8A410EF7FF012EF7FF01CEF32
:10FE22007FF0000E156E000E146E000E136E000EA3
:10FE3200126E81EF7FF081EF7FF081B823EF7FF0C8
:10FE420025EF7FF081EF7FF010C001F011C002F0CA
:10FE5200FF0E046E036871EC7CF001C010F002C06A
:10FE620011F010C001F011C002F038EC7DF00F6EFD
:10FE7200030E10181110D8A441EF7FF043EF7FF06A
:10FE820045EF7FF0CBEF7EF0040E10181110D8A4CE
:10FE92004DEF7FF04FEF7FF051EF7FF0D9EF7EF023
:10FEA200050E10181110D8A459EF7FF05BEF7FF008
:10FEB2005DEF7FF0E6EF7EF0060E10181110D8A469
:10FEC20065EF7FF067EF7FF069EF7FF0F4EF7EF090
:10FED200070E10181110D8A471EF7FF073EF7FF0A6
:10FEE20075EF7FF002EF7FF0080E10181110D8A402
:10FEF2007DEF7FF07FEF7FF01CEF7FF012EF7FF05E
:10FF020010041110D8A488EF7FF08AEF7FF090EFF1
:10FF12007FF00F5025EC7CF00F6E7DEF7EF0020E2D
:10FF220010181110D8A498EF7FF09AEF7FF0A0EF8D
:10FF32007FF00F5022EC7CF00F6E7DEF7EF0030E0F
:10FF420010181110D8A4A8EF7FF0AAEF7FF0B0EF3D
:10FF52007FF00F5030EC7CF00F6E7DEF7EF0040EE0
:10FF620010181110D8A4B8EF7FF0BAEF7FF0C0EFED
:10FF72007FF00F5028EC7CF00F6E7DEF7EF0050EC7
:10FF820010181110D8A4C8EF7FF0CAEF7FF0CFEF9E
:10FF92007FF0CEEC7CF00F6E7DEF7EF0060E101837
:10FFA2001110D8A4D7EF7FF0D9EF7FF0DEEF7FF00A
:10FFB20099EC7CF00F6E7DEF7EF0070E1018111099
:10FFC200D8A4E6EF7FF0E8EF7FF0EEEF7FF00F507E
:10FFD20071EC7DF00F6E7DEF7EF0080E101811109F
:10FFE200D8A4F6EF7FF0F8EF7FF07DEF7EF00F50B0
:0EFFF20003EC7DF00F6E7DEF7EF000EF00F06F
:020000040020DA
:08000000FFFFFFFFFFFFFFFF00
:020000040030CA
:0E000000FF06181EFF8180FF0FC00FE00F40AB
:00000001FF
