:04000000BCEF7BF0E6
:10F74A000100016E01041200016E01281200D89016
:10F75A0017301718016E1704176E01501200D8904F
:10F76A0017301718016E1728176E015012004A0E2B
:10F77A00F66EF70EF76E000EF86E0900F5CF18F068
:10F78A000900F5CF19F0176A166A156A146A136A1E
:10F79A00126A000164EF7EF0000E046E000E036E22
:10F7AA00E9EF7BF0000E056E00F000F000F000F0CB
:10F7BA0000F0052AC70E0564E5EF7BF0E7EF7BF062
:10F7CA00D9EF7BF0034A042A0150035C0250045823
:10F7DA00D8A0F2EF7BF0F4EF7BF0D7EF7BF01200CA
:10F7EA0003500124016E04500220026E0A0E011811
:10F7FA000210D8A403EF7CF005EF7CF00BEF7CF04D
:10F80A00000E026E010E016E18EF7CF0015002101C
:10F81A00D8A412EF7CF014EF7CF018EF7CF0000E05
:10F82A00026E090E016E01C001F002C002F0120060
:10F83A001650D8A423EF7CF025EF7CF029EF7CF05A
:10F84A00630E166E50EF7CF016C001F0026A000ECD
:10F85A00046E0A0E036E8BEC7DF001C009F002C043
:10F86A000AF0093A0A3AF00E0A1609500F0B0A1260
:10F87A00F00E091616C001F0026A000E046E0A0E96
:10F88A00036E33EC7DF0015009100B6E02500A1022
:10F89A000C6E1604166E0B501200630E166458EFA7
:10F8AA007CF05AEF7CF05EEF7CF0010E166E85EF6D
:10F8BA007CF016C001F0026A000E046E0A0E036E96
:10F8CA008BEC7DF001C009F002C00AF0093A0A3A4D
:10F8DA00F00E0A1609500F0B0A12F00E091616C07E
:10F8EA0001F0026A000E046E0A0E036E33EC7DF01C
:10F8FA00015009100B6E02500A100C6E1628166E73
:10F90A000B5012000A6E0AC001F0050E026ED89062
:10F91A000132022E8CEF7CF0010E01160A380F0B11
:10F92A00010B0118036E0AC004F0D8900432010ECC
:10F93A0004160A50010B04180318056E0550086EC8
:10F94A00096A08C001F009C002F0050ED890013614
:10F95A000236E82EABEF7CF00AC003F0D8900332EF
:10F96A0003500110066E0250076E06501200020E76
:10F97A0001180210D8A4C4EF7CF0C6EF7CF0C9EFDE
:10F98A007CF0FF0EF4EF7CF0090E01180210D8A4E7
:10F99A00D1EF7CF0D3EF7CF0D6EF7CF0010EF4EFE0
:10F9AA007CF001040210D8B4DDEF7CF0DFEF7CF0CC
:10F9BA00F3EF7CF0030E01180210D8B4E7EF7CF0E5
:10F9CA00E9EF7CF0F3EF7CF0070E01180210D8A4DF
:10F9DA00F1EF7CF0F3EF7CF0F4EF7CF0000E120014
:10F9EA00016E070E0160FCEF7CF0FEEF7CF002EF87
:10F9FA007DF0D880013631EF7DF018041910D8A4B3
:10FA0A0009EF7DF00BEF7DF022EF7DF0E00E01189B
:10FA1A00D8A412EF7DF014EF7DF01DEF7DF0000EFB
:10FA2A00196E000E186ED8900130016E31EF7DF01C
:10FA3A0001500124016E31EF7DF0070E0118D8A4A0
:10FA4A0029EF7DF02BEF7DF018EF7DF0000E196E97
:10FA5A00010E186E1DEF7DF001501200000E066EA9
:10FA6A0002BE3CEF7DF03AEF7DF042EF7DF0016C93
:10FA7A00021ED8B0022A010E066E04BE49EF7DF0BE
:10FA8A0047EF7DF04DEF7DF0036C041ED8B0042AD9
:10FA9A0003500410D8B454EF7DF056EF7DF07AEF9E
:10FAAA007DF0010E056E5EEF7DF0D89003360436C8
:10FABA00052A04AE63EF7DF065EF7DF05AEF7DF025
:10FACA000350015C04500258D8A06EEF7DF070EF2D
:10FADA007DF074EF7DF00350015E0450025AD89015
:10FAEA0004320332052E65EF7DF00650D8B480EF5C
:10FAFA007DF082EF7DF086EF7DF0016C021ED8B0BA
:10FB0A00022A01C001F002C002F01200000E066EC5
:10FB1A0004BE94EF7DF092EF7DF09AEF7DF0036CD6
:10FB2A00041ED8B0042A010E066E02BEA1EF7DF0B3
:10FB3A009FEF7DF0A7EF7DF0016C021ED8B0022A7C
:10FB4A00010E061A000E086E000E076E035004100E
:10FB5A00D8B4B2EF7DF0B4EF7DF0DCEF7DF0010EAA
:10FB6A00056EBCEF7DF0D89003360436052A04AE44
:10FB7A00C1EF7DF0C3EF7DF0B8EF7DF0D890073686
:10FB8A0008360350015C04500258D8A0CFEF7DF02C
:10FB9A00D1EF7DF0D6EF7DF00350015E0450025A9A
:10FBAA000780D89004320332052EC3EF7DF0065049
:10FBBA00D8B4E2EF7DF0E4EF7DF0E8EF7DF0076C7A
:10FBCA00081ED8B0082A07C001F008C002F01200C7
:10FBDA00800E14181510D8B4F5EF7DF0F7EF7DF00C
:10FBEA0033EF7EF0C00E14181510D8B4FFEF7DF075
:10FBFA0001EF7EF033EF7EF0E00E14181510D8B442
:10FC0A0009EF7EF00BEF7EF033EF7EF0F00E141862
:10FC1A001510D8B413EF7EF015EF7EF033EF7EF0B7
:10FC2A00F80E14181510D8B41DEF7EF01FEF7EF0F1
:10FC3A0033EF7EF0FC0E14181510D8B427EF7EF0BF
:10FC4A0029EF7EF033EF7EF0FE0E14181510D8A4BB
:10FC5A0031EF7EF033EF7EF03EEF7EF0000E136E52
:10FC6A00010E126E010E1418146E1550156E62EF05
:10FC7A007EF014281510D8A445EF7EF047EF7EF0E9
:10FC8A0051EF7EF0000E156E010E146E000E136E0B
:10FC9A00010E126E62EF7EF012501418146E135099
:10FCAA001518156ED8901234126E1334136E125042
:10FCBA001418146E13501518156E145012000F0EE6
:10FCCA00C16EC30E926E3F0E936E010E946E000EBD
:10FCDA00956E000E966E000E816E000E0F6E000E6F
:10FCEA00116E010E106E0FC083FF000E026E640EBD
:10FCFA00016ED1EC7BF0170E0E6E700E0D6E89EF51
:10FD0A007EF00D06D8A00E0681A88EEF7EF090EF49
:10FD1A007EF0A0EF7EF081A695EF7EF097EF7EF061
:10FD2A00A0EF7EF00D500E10D8A49EEF7EF0A0EF4B
:10FD3A007EF086EF7EF081B6A5EF7EF0A7EF7EF02B
:10FD4A0019EF7FF010C001F011C002F0000E046E2E
:10FD5A00010E036EF5EC7BF001C010F002C011F049
:10FD6A0010C001F011C002F0BCEC7CF00F6E030E63
:10FD7A0010181110D8A4C4EF7EF0C6EF7EF0CAEFB7
:10FD8A007EF0010E176E7CEF7FF0040E1018111032
:10FD9A00D8A4D2EF7EF0D4EF7EF0D7EF7EF01768CA
:10FDAA007CEF7FF0050E10181110D8A4DFEF7EF05B
:10FDBA00E1EF7EF0E5EF7EF0000E166E7CEF7FF04D
:10FDCA00060E10181110D8A4EDEF7EF0EFEF7EF0BA
:10FDDA00F3EF7EF0630E166E7CEF7FF0070E1018BD
:10FDEA001110D8A4FBEF7EF0FDEF7EF003EF7FF059
:10FDFA00000E196E010E186E7CEF7FF0080E1018B7
:10FE0A001110D8A40BEF7FF00DEF7FF017EF7FF002
:10FE1A00000E156E010E146E000E136E010E126E98
:10FE2A007CEF7FF07CEF7FF081B81EEF7FF020EF50
:10FE3A007FF07CEF7FF010C001F011C002F0FF0EDE
:10FE4A00046E0368F5EC7BF001C010F002C011F0FB
:10FE5A0010C001F011C002F0BCEC7CF00F6E030E72
:10FE6A0010181110D8A43CEF7FF03EEF7FF040EF5E
:10FE7A007FF0C6EF7EF0040E10181110D8A448EFD8
:10FE8A007FF04AEF7FF04CEF7FF0D4EF7EF0050E63
:10FE9A0010181110D8A454EF7FF056EF7FF058EFE6
:10FEAA007FF0E1EF7EF0060E10181110D8A460EF73
:10FEBA007FF062EF7FF064EF7FF0EFEF7EF0070EE6
:10FECA0010181110D8A46CEF7FF06EEF7FF070EF6E
:10FEDA007FF0FDEF7EF0080E10181110D8A478EF0D
:10FEEA007FF07AEF7FF017EF7FF00DEF7FF01004CD
:10FEFA001110D8A483EF7FF085EF7FF08BEF7FF0AE
:10FF0A000F50A9EC7BF00F6E78EF7EF0020E1018FE
:10FF1A001110D8A493EF7FF095EF7FF09BEF7FF05D
:10FF2A000F50A6EC7BF00F6E78EF7EF0030E1018E0
:10FF3A001110D8A4A3EF7FF0A5EF7FF0ABEF7FF00D
:10FF4A000F50B4EC7BF00F6E78EF7EF0040E1018B1
:10FF5A001110D8A4B3EF7FF0B5EF7FF0BBEF7FF0BD
:10FF6A000F50ACEC7BF00F6E78EF7EF0050E101898
:10FF7A001110D8A4C3EF7FF0C5EF7FF0CAEF7FF06E
:10FF8A0052EC7CF00F6E78EF7EF0060E101811100E
:10FF9A00D8A4D2EF7FF0D4EF7FF0D9EF7FF01DEC39
:10FFAA007CF00F6E78EF7EF0070E10181110D8A4AF
:10FFBA00E1EF7FF0E3EF7FF0E9EF7FF00F50F5EC30
:10FFCA007CF00F6E78EF7EF0080E10181110D8A48E
:10FFDA00F1EF7FF0F3EF7FF0F8EF7FF0EDEC7DF0DB
:10FFEA000F6E78EF7EF00F5087EC7CF00F6E78EF93
:06FFFA007EF000EF00F0B4
:020000040020DA
:08000000FFFFFFFFFFFFFFFF00
:020000040030CA
:0E000000FF06181EFF8180FF0FC00FE00F40AB
:00000001FF
