:0400000087EF7FF017
:10FF0E000001AEEF7FF0000E046E000E036EA2EF46
:10FF1E007FF0000E056E00F000F000F000F000F033
:10FF2E00052AC70E05649EEF7FF0A0EF7FF092EFDB
:10FF3E007FF0034A042A0150035C02500458D8A0F3
:10FF4E00ABEF7FF0ADEF7FF090EF7FF012000F0E72
:10FF5E00C16EC30E926E3F0E936E010E946E000E26
:10FF6E00956E000E966E000E816E000E086E08C025
:10FF7E0083FF000E026E640E016E8AEC7FF0170E88
:10FF8E00076E700E066ECFEF7FF00606D8A007063E
:10FF9E0081A8D4EF7FF0D6EF7FF0E6EF7FF081A659
:10FFAE00DBEF7FF0DDEF7FF0E6EF7FF0065007101E
:10FFBE00D8A4E4EF7FF0E6EF7FF0CCEF7FF081B6D0
:10FFCE00EBEF7FF0EDEF7FF0F0EF7FF00806BEEF86
:10FFDE007FF081B8F5EF7FF0F7EF7FF0FBEF7FF06A
:10FFEE00000E086EBEEF7FF0082ABEEF7FF000EF26
:02FFFE0000F011
:020000040020DA
:08000000FFFFFFFFFFFFFFFF00
:020000040030CA
:0E000000FF06181EFF8180FF0FC00FE00F40AB
:00000001FF
