:04000000C6EF0BF04C
:101000000020202050525A455A20435A4153202054
:101010002000475241435A20312020475241435A31
:10102000203200475241435A20312050525A4547FE
:1010300052414C00475241435A20322050525A45A7
:101040004752414C0000010EC26E0B0EC16E010EE4
:10105000C06EC30E926E3F0E936E010E946E000E24
:10106000956E000E966E5DEC0BF0010E07EC0CF029
:10107000800E07EC0CF0120E226E100E236E71EC37
:101080000AF0C00E07EC0CF00F0E226E000E236E5D
:1010900071EC0AF0000E316E000E306E30503110DF
:1010A000D8A455EF08F057EF08F0A7EF08F0010EAD
:1010B00029EC0AF020C027F021C028F0000E2A6E8B
:1010C0000A0E296E23EC0BF027C02EF028C02FF05B
:1010D000BBEC09F0DBEC0BF081B671EF08F073EFBD
:1010E00008F07BEF08F0000E316E010E306E000E3E
:1010F0000E6E020E0D6E81BA80EF08F082EF08F0DE
:101100008AEF08F0000E316E010E306E000E0E6E8A
:10111000010E0D6E000E216EC80E206E8BEC0BF0D2
:10112000010E07EC0CF0800E07EC0CF0120E226E94
:10113000100E236E71EC0AF0C00E07EC0CF00F0ECF
:10114000226E000E236E71EC0AF04EEF08F0AFEC49
:101150000BF00D040E10D8A4B0EF08F0B2EF08F0B9
:1011600005EF09F007500810D8A4B9EF08F0BBEF5D
:1011700008F001EF09F009500A10D8A4C2EF08F0F6
:10118000C4EF08F001EF09F00B500C10D8A4CBEF1E
:1011900008F0CDEF08F001EF09F0010E07EC0CF0BC
:1011A000800E07EC0CF0230E226E100E236E71ECF5
:1011B0000AF0C00E07EC0CF0010E226E100E236E2A
:1011C00071EC0AF0130E216E880E206E8BEC0BF082
:1011D000000E316E000E306E010E29EC0AF020C0B8
:1011E00027F021C028F0000E2A6E0A0E296E23EC8B
:1011F0000BF027C02EF028C02FF0BBEC09F060EFF9
:1012000009F0E9EC0AF060EF09F0020E0D180E107B
:10121000D8A40DEF09F00FEF09F060EF09F00150CD
:101220000210D8A416EF09F018EF09F05EEF09F0EC
:1012300003500410D8A41FEF09F021EF09F05EEF6E
:1012400009F005500610D8A428EF09F02AEF09F09C
:101250005EEF09F0010E07EC0CF0800E07EC0CF0CD
:10126000340E226E100E236E71EC0AF0C00E07ECE5
:101270000CF0010E226E100E236E71EC0AF0130EAC
:10128000216E880E206E8BEC0BF0000E316E000E7E
:10129000306E010E29EC0AF020C027F021C028F0A2
:1012A000000E2A6E0A0E296E23EC0BF027C02EF0DA
:1012B00028C02FF0BBEC09F060EF09F0AFEC0AF0AA
:1012C000DBEC0BF0010E07EC0CF0800E07EC0CF0E1
:1012D000120E226E100E236E71EC0AF0C00E07EC97
:1012E0000CF00F0E226E000E236E71EC0AF0000E51
:1012F000216E7D0E206E8BEC0BF0AFEC0BF0000E30
:10130000216E7D0E206E8BEC0BF0AFEC0BF0000E1F
:10131000216E7D0E206E8BEC0BF0AFEC0BF0000E0F
:10132000216E7D0E206E8BEC0BF0AFEC0BF0000EFF
:10133000216E7D0E206E8BEC0BF0AFEC0BF0000EEF
:10134000216E7D0E206E8BEC0BF0AFEC0BF0000EDF
:10135000216E7D0E206E8BEC0BF0AFEC0BF0000ECF
:10136000216E7D0E206E8BEC0BF0AFEC0BF04EEF90
:1013700008F000EF00F02F5007E1220E2E5CD8B0ED
:10138000C4EF09F0C6EF09F0E0EF09F0000E086EB7
:10139000010E076E000E0A6E000E096E000E0C6E36
:1013A000000E0B6E000E026E010E016E000E046E3A
:1013B000000E036E000E066E000E056E28EF0AF09A
:1013C0002F5007E1440E2E5CD8B0E9EF09F0EBEFA7
:1013D00009F010EF0AF02F5009E1220E2E5CD8A080
:1013E000F4EF09F0F6EF09F010EF0AF0000E086EC6
:1013F000030E076E000E0A6E000E096E000E0C6ED4
:10140000000E0B6E000E026E030E016E000E046ED7
:10141000000E036E000E066E000E056E28EF0AF039
:10142000000E086E050E076E000E0A6E000E096EA5
:10143000000E0C6E000E0B6E000E026E050E016E9D
:10144000000E046E000E036E000E066E000E056E9A
:101450001200266E38EF0AF0010EC26E51EF0AF04C
:10146000050EC26E51EF0AF0090EC26E51EF0AF07E
:101470002650226E236A2350000AD8B442EF0AF0A5
:1014800051EF0AF02250000AD8B42CEF0AF0010AFA
:10149000D8B430EF0AF0030AD8B434EF0AF051EFB1
:1014A0000AF0C282C2B257EF0AF059EF0AF052EFC7
:1014B0000AF0C3CF22F0060E236ED8902232232EDC
:1014C0005DEF0AF02250C4CF24F0256AD89024366C
:1014D0002536D890243625362410206E2550216ECE
:1014E0001200000E266E8FEF0AF026502224246E82
:1014F000000E2320256E24C0F6FF25C0F7FF000E46
:10150000F86E0F0EF76403D00800F55005D0F6CF43
:10151000E9FFF7CFEAFFEF50FEEC0BF0262A26504A
:101520002224246E000E2320256E24C0F6FF25C041
:10153000F7FF000EF86E0F0EF76403D00800F550A9
:1015400005D0F6CFE9FFF7CFEAFFEF500009D8A4A6
:10155000ACEF0AF0AEEF0AF075EF0AF0120005509A
:101560000610D8A4B6EF0AF0B8EF0AF0E2EF0AF0DE
:1015700003500410D8A4BFEF0AF0C1EF0AF0DAEF6D
:101580000AF001500210D8B4C8EF0AF0CAEF0AF00E
:10159000E8EF0AF0FF0E0124016EFF0E0220026E3A
:1015A000000E046E050E036E000E066E090E056E2B
:1015B000E8EF0AF0FF0E0324036EFF0E0420046E12
:1015C000D4EF0AF0FF0E0524056EFF0E0620066E0E
:1015D00012000B500C10D8A4F0EF0AF0F2EF0AF052
:1015E0001CEF0BF009500A10D8A4F9EF0AF0FBEF3A
:1015F0000AF014EF0BF007500810D8B402EF0BF00C
:1016000004EF0BF022EF0BF0FF0E0724076EFF0E26
:101610000820086E000E0A6E050E096E000E0C6E94
:10162000090E0B6E22EF0BF0FF0E0924096EFF0E60
:101630000A200A6E0EEF0BF0FF0E0B240B6EFF0E4E
:101640000C200C6E1200000E2C6E000E2B6E29501A
:101650002A10D8B42EEF0BF030EF0BF058EF0BF050
:10166000010E2D6E38EF0BF0D89029362A362D2A30
:101670002AAE3DEF0BF03FEF0BF034EF0BF0D890BC
:101680002B362C362950275C2A502858D8A04BEFEF
:101690000BF04DEF0BF052EF0BF02950275E2A5064
:1016A000285A2B80D8902A3229322D2E3FEF0BF06A
:1016B0002BC027F02CC028F0120084928494000ED6
:1016C000216E140E206E8BEC0BF08482380E07EC2A
:1016D0000CF0000E216E050E206E8BEC0BF0380E18
:1016E00007EC0CF0000E216E010E206E8BEC0BF05F
:1016F000380E07EC0CF0080E07EC0CF00F0E07ECA0
:101700000CF0010E07EC0CF0380E07EC0CF0800E1C
:1017100007EC0CF01200000E236E000E226EA3EFF9
:101720000BF0000E246E00F000F000F000F000F06E
:10173000242AC70E24649FEF0BF0A1EF0BF093EF68
:101740000BF0224A232A2050225C21502358D8A093
:10175000ACEF0BF0AEEF0BF091EF0BF0120081B697
:10176000B4EF0BF0B6EF0BF0BAEF0BF0000E0E6E0D
:10177000020E0D6E81BABFEF0BF0C1EF0BF0C5EF9B
:101780000BF0000E0E6E010E0D6E1200DC0EF66EEA
:10179000170EF76E000EF86E00EE01F010EE1FF05F
:1017A0000900F5CFEEFFE550E150FAE1000EF86ECA
:1017B000000123EF08F00750300F0F6E0950300F73
:1017C000116E0B50300F126E0150300F1B6E035014
:1017D000300F1D6E0550300F1E6E1200010000000C
:1017E00000000100000000000100313A30302020EC
:0B17F000202020202020313A30300063
:1017FC00216E8482215010EC0CF0848484928482BB
:10180C001200216E8482215010EC0CF0849484928E
:0C181C0084821200206E20C083FF1200A6
:020000040020DA
:08000000FFFFFFFFFFFFFFFF00
:020000040030CA
:0E000000FF06181EFF8180FF0FC00FE00F40AB
:00000001FF
