:0400000078EF0BF09A
:101000000020202050525A455A20435A4153202054
:101010002000475241435A20312020475241435A31
:10102000203200475241435A20312050525A4547FE
:1010300052414C00475241435A20322050525A45A7
:101040004752414C0000010EC26E0B0EC16E010EE4
:10105000C06EC30E926E3F0E936E010E946E000E24
:10106000956E000E966E26EC0BF0010EB8EC0BF0B0
:10107000800EB8EC0BF0120E206E100E216E3AECC2
:101080000AF0C00EB8EC0BF00D0E206E000E216EB3
:101090003AEC0AF0000E2F6E000E2E6E000E316E2E
:1010A000010E306E2E502F10D8A459EF08F05BEFD0
:1010B00008F096EF08F0010EF2EC09F01EC025F0E2
:1010C0001FC026F0000E286E0A0E276EECEC0AF008
:1010D00025C02CF026C02DF084EC09F08DEC0BF02F
:1010E00081B675EF08F077EF08F07FEF08F0000E9B
:1010F0002F6E010E2E6E000E316E020E306E81BA12
:1011000084EF08F086EF08F08EEF08F0000E2F6EE7
:10111000010E2E6E000E316E010E306E000E1F6E2F
:10112000C80E1E6E54EC0BF06BEF09F081B69BEF0E
:1011300008F09DEF08F0A1EF08F0000E316E020EEE
:10114000306E81BAA6EF08F0A8EF08F0ACEF08F017
:10115000000E316E010E306E30043110D8A4B3EFA2
:1011600008F0B5EF08F008EF09F007500810D8A410
:10117000BCEF08F0BEEF08F004EF09F009500A10C8
:10118000D8A4C5EF08F0C7EF08F004EF09F00B5042
:101190000C10D8A4CEEF08F0D0EF08F004EF09F05F
:1011A000010EB8EC0BF0800EB8EC0BF0230E206EA5
:1011B000100E216E3AEC0AF0C00EB8EC0BF0010EE6
:1011C000206E100E216E3AEC0AF0130E1F6E880E80
:1011D0001E6E54EC0BF0000E2F6E000E2E6E010EE4
:1011E000F2EC09F01EC025F01FC026F0000E286E9C
:1011F0000A0E276EECEC0AF025C02CF026C02DF06C
:1012000084EC09F063EF09F0B2EC0AF063EF09F047
:10121000020E30183110D8A410EF09F012EF09F0C7
:1012200063EF09F001500210D8A419EF09F01BEF89
:1012300009F061EF09F003500410D8A422EF09F07F
:1012400024EF09F061EF09F005500610D8A42BEF48
:1012500009F02DEF09F061EF09F0010EB8EC0BF089
:10126000800EB8EC0BF0340E206E100E216E3AECAE
:101270000AF0C00EB8EC0BF0010E206E100E216EBD
:101280003AEC0AF0130E1F6E880E1E6E54EC0BF033
:10129000000E2F6E000E2E6E010EF2EC09F01EC035
:1012A00025F01FC026F0000E286E0A0E276EECEC0B
:1012B0000AF025C02CF026C02DF084EC09F063EF75
:1012C00009F078EC0AF08DEC0BF0030E1F6EE80EBF
:1012D0001E6E54EC0BF0010EB8EC0BF0800EB8EC67
:1012E0000BF0120E206E100E216E3AEC0AF0C00EBA
:1012F000B8EC0BF00D0E206E000E216E3AEC0AF0E9
:1013000052EF08F000EF00F02D5007E1220E2C5CA8
:10131000D8B08DEF09F08FEF09F0A9EF09F0000EBA
:10132000086E010E076E000E0A6E000E096E000EAA
:101330000C6E000E0B6E000E026E010E016E000EA2
:10134000046E000E036E000E066E000E056EF1EFC9
:1013500009F02D5007E1440E2C5CD8B0B2EF09F033
:10136000B4EF09F0D9EF09F02D5009E1220E2C5C01
:10137000D8A0BDEF09F0BFEF09F0D9EF09F0000EDA
:10138000086E030E076E000E0A6E000E096E000E48
:101390000C6E000E0B6E000E026E030E016E000E40
:1013A000046E000E036E000E066E000E056EF1EF69
:1013B00009F0000E086E050E076E000E0A6E000E94
:1013C000096E000E0C6E000E0B6E000E026E050E06
:1013D000016E000E046E000E036E000E066E000E0F
:1013E000056E1200246E01EF0AF0010EC26E1AEFB4
:1013F0000AF0050EC26E1AEF0AF0090EC26E1AEF5D
:101400000AF02450206E216A2150000AD8B40BEF54
:101410000AF01AEF0AF02050000AD8B4F5EF09F0EC
:10142000010AD8B4F9EF09F0030AD8B4FDEF09F0C6
:101430001AEF0AF0C282C2B220EF0AF022EF0AF0DD
:101440001BEF0AF0C3CF20F0060E216ED890203299
:10145000212E26EF0AF02050C4CF22F0236AD89024
:1014600022362336D8902236233622101E6E235081
:101470001F6E1200000E246E58EF0AF02450202434
:10148000226E000E2120236E22C0F6FF23C0F7FF3C
:10149000000EF86E0F0EF76403D00800F55005D06B
:1014A000F6CFE9FFF7CFEAFFEF50AFEC0BF0242ABD
:1014B00024502024226E000E2120236E22C0F6FF2D
:1014C00023C0F7FF000EF86E0F0EF76403D008007C
:1014D000F55005D0F6CFE9FFF7CFEAFFEF5000094E
:1014E000D8A475EF0AF077EF0AF03EEF0AF0120089
:1014F00005500610D8A47FEF0AF081EF0AF0ABEF99
:101500000AF003500410D8A488EF0AF08AEF0AF01A
:10151000A3EF0AF001500210D8B491EF0AF093EF54
:101520000AF0B1EF0AF0FF0E0124016EFF0E022057
:10153000026E000E046E050E036E000E066E090E9E
:10154000056EB1EF0AF0FF0E0324036EFF0E0420B8
:10155000046E9DEF0AF0FF0E0524056EFF0E0620B7
:10156000066E12000B500C10D8A4B9EF0AF0BBEFB6
:101570000AF0E5EF0AF009500A10D8A4C2EF0AF009
:10158000C4EF0AF0DDEF0AF007500810D8B4CBEF33
:101590000AF0CDEF0AF0EBEF0AF0FF0E0724076E1A
:1015A000FF0E0820086E000E0A6E050E096E000E72
:1015B0000C6E090E0B6EEBEF0AF0FF0E0924096E9C
:1015C000FF0E0A200A6ED7EF0AF0FF0E0B240B6EF7
:1015D000FF0E0C200C6E1200000E2A6E000E296EFB
:1015E00027502810D8B4F7EF0AF0F9EF0AF021EFEE
:1015F0000BF0010E2B6E01EF0BF0D890273628363A
:101600002B2A28AE06EF0BF008EF0BF0FDEF0AF0E7
:10161000D89029362A362750255C28502658D8A03D
:1016200014EF0BF016EF0BF01BEF0BF02750255EBD
:101630002850265A2980D890283227322B2E08EF9E
:101640000BF029C025F02AC026F012008492849461
:10165000000E1F6E140E1E6E54EC0BF08482380EBA
:10166000B8EC0BF0000E1F6E050E1E6E54EC0BF066
:10167000380EB8EC0BF0000E1F6E010E1E6E54EC0F
:101680000BF0380EB8EC0BF0080EB8EC0BF00F0EA8
:10169000B8EC0BF0010EB8EC0BF0380EB8EC0BF018
:1016A000800EB8EC0BF01200000E216E000E206EC2
:1016B0006CEF0BF0000E226E00F000F000F000F076
:1016C00000F0222AC70E226468EF0BF06AEF0BF0DD
:1016D0005CEF0BF0204A212A1E50205C1F5021583D
:1016E000D8A075EF0BF077EF0BF05AEF0BF012006C
:1016F000400EF66E170EF76E000EF86E00EE01F05B
:1017000010EE1DF00900F5CFEEFFE550E150FAE1D3
:10171000000EF86E000123EF08F00750300F0D6E39
:101720000950300F0F6E0B50300F106E0150300FFC
:10173000196E0350300F1B6E0550300F1C6E1200D7
:10174000010000000000010000000000313A3030CC
:0D1750002020202020202020313A303000C1
:10175E001F6E84821F50C1EC0BF0848484928482AD
:10176E0012001F6E84821F50C1EC0BF08494849281
:0C177E00848212001E6E1EC083FF120049
:020000040020DA
:08000000FFFFFFFFFFFFFFFF00
:020000040030CA
:0E000000FF06181EFF8180FF0FC00FE00F40AB
:00000001FF
