:04000000FDEF09F017
:10100000006B6F6E69656320637A617375212020C0
:101010002000475241435A20312020475241435A31
:10102000203200477261637A20312070727A6567DE
:1010300072616C00477261637A20322070727A6547
:101040006772616C0000010EC26E0B0EC16E010E64
:10105000C06EC30E926E3F0E936E010E946E000E24
:10106000956E000E966EABEC09F0010E2AEC0AF0BC
:10107000000E286E000E276E000E266E000E256EE6
:1010800020EE07F010EE29F0050EDBCFE3FFE806B7
:10109000FCE220EE01F010EE2FF0050EDBCFE3FFB7
:1010A000E806FCE2290E1E6E000E1F6E2F0E206E4B
:1010B000000E216E78EC09F0800E2AEC0AF0120E78
:1010C000206E100E216E3AEC09F0C00E2AEC0AF0E8
:1010D0000D0E206E000E216E3AEC09F027502810FC
:1010E000D8A475EF08F077EF08F026EF09F0255047
:1010F0002610D8A47EEF08F080EF08F0D6EF08F0B5
:101100002D502E10D8A487EF08F089EF08F0CEEF0D
:1011100008F02B502C10D8A490EF08F092EF08F0B4
:10112000C6EF08F029502A10D8A499EF08F09BEFD9
:1011300008F0B6EF08F0010E2AEC0AF0800E2AEC57
:101140000AF0230E206E100E216E3AEC09F0C00E4C
:101150002AEC0AF0010E206E100E216E3AEC09F016
:10116000000E286E000E276E26EF09F0FF0E2924D0
:10117000296EFF0E2A202A6E000E2C6E050E2B6E95
:10118000000E2E6E090E2D6E26EF09F0FF0E2B2499
:101190002B6EFF0E2C202C6E26EF09F0FF0E2D2457
:1011A0002D6EFF0E2E202E6E26EF09F033503410D8
:1011B000D8A4DDEF08F0DFEF08F020EF09F03150A0
:1011C0003210D8A4E6EF08F0E8EF08F018EF09F0C5
:1011D0002F503010D8A4EFEF08F0F1EF08F008EF2F
:1011E00009F0010E2AEC0AF0800E2AEC0AF0340E07
:1011F000206E100E216E3AEC09F0C00E2AEC0AF0B7
:10120000010E206E100E216E3AEC09F0B0EF08F0DE
:10121000FF0E2F242F6EFF0E3020306E000E326E28
:10122000050E316E000E346E090E336E26EF09F096
:10123000FF0E3124316EFF0E3220326E26EF09F0A0
:10124000FF0E3324336EFF0E3420346E030E1F6EF8
:10125000E80E1E6ED9EC09F0290E1E6E000E1F6EF0
:101260002F0E206E000E216E78EC09F06EEF08F064
:1012700000EF00F0000E246E58EF09F024502024F7
:10128000226E000E2120236E22C0F6FF23C0F7FF3E
:10129000000EF86E0F0EF76403D00800F55005D06D
:1012A000F6CFE9FFF7CFEAFFEF5021EC0AF0242A4E
:1012B00024502024226E000E2120236E22C0F6FF2F
:1012C00023C0F7FF000EF86E0F0EF76403D008007E
:1012D000F55005D0F6CFE9FFF7CFEAFFEF50000950
:1012E000D8A475EF09F077EF09F03EEF09F012008E
:1012F0001EC0D9FF1FC0DAFFDF50300F0D6E20EE89
:1013000002F01E50D9261F50DA22DF50300F0F6E28
:1013100020EE04F01E50D9261F50DA22DF50300F85
:10132000106E20C0D9FF21C0DAFFDF50300F196ED8
:1013300020EE02F02050D9262150DA22DF50300F63
:101340001B6E20EE04F02050D9262150DA22DF5007
:10135000300F1C6E120084928494000E1F6E140EC7
:101360001E6ED9EC09F08482380E2AEC0AF0000EC9
:101370001F6E050E1E6ED9EC09F0380E2AEC0AF02D
:10138000000E1F6E010E1E6ED9EC09F0380E2AEC0D
:101390000AF0080E2AEC0AF00F0E2AEC0AF0010EF1
:1013A0002AEC0AF0380E2AEC0AF0800E2AEC0AF039
:1013B0001200000E216E000E206EF1EF09F0000EFB
:1013C000226E00F000F000F000F000F0222AC70EBC
:1013D0002264EDEF09F0EFEF09F0E1EF09F0204AA8
:1013E000212A1E50205C1F502158D8A0FAEF09F086
:1013F000FCEF09F0DFEF09F01200240EF66E140E78
:10140000F76E000EF86E00EE01F010EE1DF0090010
:10141000F5CFEEFFE550E150FAE1000EF86E000165
:1014200023EF08F0010000000000010000000000B0
:10143000203A20202020202020202020203A202078
:0114400000AB
:101442001F6E84821F5033EC0AF08484849284825B
:1014520012001F6E84821F5033EC0AF0849484922F
:0C146200848212001E6E1EC083FF120068
:020000040020DA
:08000000FFFFFFFFFFFFFFFF00
:020000040030CA
:0E000000FF06181EFF8180FF0FC00FE00F40AB
:00000001FF
