:040000009FEF7EF000
:10FD3A00010001003A0EF66EFD0EF76E000EF86E27
:10FD4A0000EE0FF010EE04F00900F5CFEEFFE550DB
:10FD5A00E150FAE1146A136A000EF86E00019BEF93
:10FD6A007FF0000E046E000E036ECEEF7EF0000EE2
:10FD7A00056E00F000F000F000F000F0052AC70E52
:10FD8A000564CAEF7EF0CCEF7EF0BEEF7EF0034A48
:10FD9A00042A0150035C02500458D8A0D7EF7EF021
:10FDAA00D9EF7EF0BCEF7EF01200000E0D6E000E51
:10FDBA000C6E0A500B10D8B4E5EF7EF0E7EF7EF038
:10FDCA000FEF7FF0010E0E6EEFEF7EF0D8900A363D
:10FDDA000B360E2A0BAEF4EF7EF0F6EF7EF0EBEF69
:10FDEA007EF0D8900C360D360A50085C0B50095834
:10FDFA00D8A002EF7FF004EF7FF009EF7FF00A50FE
:10FE0A00085E0B50095A0C80D8900B320A320E2E1B
:10FE1A00F6EF7EF00CC008F00DC009F01200000EDB
:10FE2A00076E000E066E40EF7FF081B61FEF7FF07F
:10FE3A0021EF7FF02BEF7FF0000E106E000E0F6E99
:10FE4A00000E836E000E076E0A0E066E06A030EFD5
:10FE5A007FF032EF7FF036EF7FF0010E836E38EFDE
:10FE6A007FF0000E836E010E026EF40E016EB6EC88
:10FE7A007EF0064A072A07BE4CEF7FF0075009E1D9
:10FE8A000A0E065CD8A04CEF7FF04EEF7FF01AEF17
:10FE9A007FF0000E146E010E136E1200076E62EFF1
:10FEAA007FF0010EC26E7BEF7FF0050EC26E7BEF14
:10FEBA007FF0090EC26E7BEF7FF00750036E046A73
:10FECA000450000AD8B46CEF7FF07BEF7FF0035048
:10FEDA00000AD8B456EF7FF0010AD8B45AEF7FF07F
:10FEEA00030AD8B45EEF7FF07BEF7FF0C282C2B222
:10FEFA0081EF7FF083EF7FF07CEF7FF0C3CF03F0D9
:10FF0A00060E046ED8900332042E87EF7FF003505A
:10FF1A00C4CF05F0066AD89005360636D89005365D
:10FF2A0006360510016E0650026E1200010EC26EF0
:10FF3A000B0EC16E010EC06EC30E926E3F0E936E13
:10FF4A00010E946E000E956E000E966E81B6B0EF9D
:10FF5A007FF0B2EF7FF0C5EF7FF00F501010D8A4FA
:10FF6A00B9EF7FF0BBEF7FF0C1EF7FF0000E106EAC
:10FF7A00010E0F6EC5EF7FF0000E106E000E0F6EB1
:10FF8A000F041010D8A4CCEF7FF0CEEF7FF0F6EF7D
:10FF9A007FF0000E53EC7FF001C008F002C009F0B8
:10FFAA00000E0B6E0A0E0A6EDAEC7EF0095009E1B9
:10FFBA00330E085CD8A0E4EF7FF0E6EF7FF0F6EFAF
:10FFCA007FF013501410D8A4EDEF7FF0EFEF7FF01D
:10FFDA00F3EF7FF014EC7FF0ABEF7FF08368ABEFC9
:10FFEA007FF0000E836E000E146E000E136EABEFE0
:06FFFA007FF000EF00F0B3
:020000040020DA
:08000000FFFFFFFFFFFFFFFF00
:020000040030CA
:0E000000FF06181EFF8180FF0FC00FE00F40AB
:00000001FF
