:040000000FEF7EF090
:10FC1C0001001C0EF66EFC0EF76E000EF86E09005D
:10FC2C00F5CF15F00900F5CF16F0000EF86E0001B7
:10FC3C002DEF7FF0116E010E94EC7EF001C008F0F8
:10FC4C0002C009F0000E0B6E0A0E0A6E5AEC7EF022
:10FC5C0008C00FF009C010F08CEC7FF011281200D6
:10FC6C00000E046E000E036E4EEF7EF0000E056E5D
:10FC7C0000F000F000F000F000F0052AC70E05645B
:10FC8C004AEF7EF04CEF7EF03EEF7EF0034A042A02
:10FC9C000150035C02500458D8A057EF7EF059EF86
:10FCAC007EF03CEF7EF01200000E0D6E000E0C6E1E
:10FCBC000A500B10D8B465EF7EF067EF7EF08FEF33
:10FCCC007EF0010E0E6E6FEF7EF0D8900A360B367A
:10FCDC000E2A0BAE74EF7EF076EF7EF06BEF7EF0BB
:10FCEC00D8900C360D360A50085C0B500958D8A029
:10FCFC0082EF7EF084EF7EF089EF7EF00A50085E92
:10FD0C000B50095A0C80D8900B320A320E2E76EF1B
:10FD1C007EF00CC008F00DC009F01200076EA3EFC6
:10FD2C007EF0010EC26EBCEF7EF0050EC26EBCEF13
:10FD3C007EF0090EC26EBCEF7EF00750036E046AB3
:10FD4C000450000AD8B4ADEF7EF0BCEF7EF0035047
:10FD5C00000AD8B497EF7EF0010AD8B49BEF7EF07E
:10FD6C00030AD8B49FEF7EF0BCEF7EF0C282C2B221
:10FD7C00C2EF7EF0C4EF7EF0BDEF7EF0C3CF03F098
:10FD8C00060E046ED8900332042EC8EF7EF003509A
:10FD9C00C4CF05F0066AD89005360636D8900536DD
:10FDAC0006360510016E0650026E1200116E070E1B
:10FDBC001160E3EF7EF0E5EF7EF0E9EF7EF0D880A6
:10FDCC00113618EF7FF015041610D8A4F0EF7EF062
:10FDDC00F2EF7EF009EF7FF0E00E1118D8A4F9EFE6
:10FDEC007EF0FBEF7EF004EF7FF0000E166E000E3F
:10FDFC00156ED8901130116E18EF7FF01150112440
:10FE0C00116E18EF7FF0070E1118D8A410EF7FF0C9
:10FE1C0012EF7FF0FFEF7EF0000E166E010E156EE6
:10FE2C0004EF7FF0010E94EC7EF001C008F002C0EC
:10FE3C0009F0000E0B6E0A0E0A6E5AEC7EF008C02A
:10FE4C000FF009C010F08CEC7FF011501200010E75
:10FE5C00C26E0B0EC16E010EC06EC30E926E3F0EC3
:10FE6C00936E010E946E000E956E000E966E000E43
:10FE7C00146E14C083FF000E136E010E126E000E72
:10FE8C00026E640E016E36EC7EF081B650EF7FF0A0
:10FE9C0052EF7FF05AEF7FF0000E136E010E126ED0
:10FEAC00000E146E6BEF7FF081B85FEF7FF061EFA7
:10FEBC007FF06BEF7FF0000E136E020E126E000ED1
:10FECC00146E000E166E010E156E12041310D8A4CB
:10FEDC0072EF7FF074EF7FF07AEF7FF0145020EC2C
:10FEEC007EF0146E3FEF7FF0020E12181310D8A4A0
:10FEFC0082EF7FF084EF7FF03FEF7FF01450DCEC6B
:10FF0C007EF0146E3FEF7FF000EF00F0105007E131
:10FF1C00330E0F5CD8B095EF7FF097EF7FF09FEF2B
:10FF2C007FF0000E026E000E016E36EC7EF0FFEFDD
:10FF3C007FF0105009E1370E0F5CD8A0A8EF7FF0CE
:10FF4C00AAEF7FF0BDEF7FF0105007E1660E0F5C5B
:10FF5C00D8B0B3EF7FF0B5EF7FF0BDEF7FF0000EC0
:10FF6C00026EC80E016E36EC7EF0FFEF7FF0105083
:10FF7C0009E1660E0F5CD8A0C6EF7FF0C8EF7FF0EA
:10FF8C00DBEF7FF0105007E1990E0F5CD8B0D1EF8A
:10FF9C007FF0D3EF7FF0DBEF7FF0010E026E900E5F
:10FFAC00016E36EC7EF0FFEF7FF0105009E1990EF8
:10FFBC000F5CD8A0E4EF7FF0E6EF7FF0F9EF7FF075
:10FFCC00105007E1CC0E0F5CD8B0EFEF7FF0F1EFE3
:10FFDC007FF0F9EF7FF0030E026E200E016E36EC0F
:10FFEC007EF0FFEF7FF0060E026E400E016E36ECD7
:04FFFC007EF0120081
:020000040020DA
:08000000FFFFFFFFFFFFFFFF00
:020000040030CA
:0E000000FF06181EFF8180FF0FC00FE00F40AB
:00000001FF
